{
  "_format": "hh-sol-artifact-1",
  "contractName": "Feed",
  "sourceName": "contracts/Feed.sol",
  "abi": [
    {
      "inputs": [
        {
          "internalType": "string",
          "name": "_author",
          "type": "string"
        }
      ],
      "stateMutability": "nonpayable",
      "type": "constructor"
    },
    {
      "anonymous": false,
      "inputs": [
        {
          "indexed": false,
          "internalType": "uint256",
          "name": "postId",
          "type": "uint256"
        },
        {
          "indexed": false,
          "internalType": "string",
          "name": "author",
          "type": "string"
        },
        {
          "indexed": false,
          "internalType": "string",
          "name": "title",
          "type": "string"
        },
        {
          "indexed": false,
          "internalType": "string",
          "name": "content",
          "type": "string"
        },
        {
          "indexed": false,
          "internalType": "string",
          "name": "hash",
          "type": "string"
        },
        {
          "indexed": false,
          "internalType": "string",
          "name": "name",
          "type": "string"
        }
      ],
      "name": "NewPost",
      "type": "event"
    },
    {
      "inputs": [],
      "name": "author",
      "outputs": [
        {
          "internalType": "string",
          "name": "",
          "type": "string"
        }
      ],
      "stateMutability": "view",
      "type": "function"
    },
    {
      "inputs": [
        {
          "internalType": "string",
          "name": "_author",
          "type": "string"
        },
        {
          "internalType": "string",
          "name": "_title",
          "type": "string"
        },
        {
          "internalType": "string",
          "name": "_content",
          "type": "string"
        },
        {
          "internalType": "string",
          "name": "_hash",
          "type": "string"
        },
        {
          "internalType": "string",
          "name": "_alias",
          "type": "string"
        }
      ],
      "name": "createPost",
      "outputs": [],
      "stateMutability": "nonpayable",
      "type": "function"
    },
    {
      "inputs": [],
      "name": "viewData",
      "outputs": [
        {
          "components": [
            {
              "internalType": "uint256",
              "name": "postId",
              "type": "uint256"
            },
            {
              "internalType": "string",
              "name": "author",
              "type": "string"
            },
            {
              "internalType": "string",
              "name": "title",
              "type": "string"
            },
            {
              "internalType": "string",
              "name": "content",
              "type": "string"
            },
            {
              "internalType": "string",
              "name": "hash",
              "type": "string"
            },
            {
              "internalType": "string",
              "name": "name",
              "type": "string"
            }
          ],
          "internalType": "struct Feed.Post[]",
          "name": "",
          "type": "tuple[]"
        }
      ],
      "stateMutability": "view",
      "type": "function"
    }
  ],
  "bytecode": "0x60806040523480156200001157600080fd5b50604051620016f8380380620016f8833981810160405281019062000037919062000294565b620000836040518060400160405280601681526020017f4e657720506f737420436f6e74726163742062793a200000000000000000000081525082620000a360201b620007de1760201c565b80600090805190602001906200009b92919062000172565b5050620004e1565b620001458282604051602401620000bc9291906200031a565b6040516020818303038152906040527f4b5c4277000000000000000000000000000000000000000000000000000000007bffffffffffffffffffffffffffffffffffffffffffffffffffffffff19166020820180517bffffffffffffffffffffffffffffffffffffffffffffffffffffffff83818316178352505050506200014960201b60201c565b5050565b60008151905060006a636f6e736f6c652e6c6f679050602083016000808483855afa5050505050565b828054620001809062000406565b90600052602060002090601f016020900481019282620001a45760008555620001f0565b82601f10620001bf57805160ff1916838001178555620001f0565b82800160010185558215620001f0579182015b82811115620001ef578251825591602001919060010190620001d2565b5b509050620001ff919062000203565b5090565b5b808211156200021e57600081600090555060010162000204565b5090565b60006200023962000233846200037e565b62000355565b9050828152602081018484840111156200025257600080fd5b6200025f848285620003d0565b509392505050565b600082601f8301126200027957600080fd5b81516200028b84826020860162000222565b91505092915050565b600060208284031215620002a757600080fd5b600082015167ffffffffffffffff811115620002c257600080fd5b620002d08482850162000267565b91505092915050565b6000620002e682620003b4565b620002f28185620003bf565b935062000304818560208601620003d0565b6200030f81620004d0565b840191505092915050565b60006040820190508181036000830152620003368185620002d9565b905081810360208301526200034c8184620002d9565b90509392505050565b60006200036162000374565b90506200036f82826200043c565b919050565b6000604051905090565b600067ffffffffffffffff8211156200039c576200039b620004a1565b5b620003a782620004d0565b9050602081019050919050565b600081519050919050565b600082825260208201905092915050565b60005b83811015620003f0578082015181840152602081019050620003d3565b8381111562000400576000848401525b50505050565b600060028204905060018216806200041f57607f821691505b6020821081141562000436576200043562000472565b5b50919050565b6200044782620004d0565b810181811067ffffffffffffffff82111715620004695762000468620004a1565b5b80604052505050565b7f4e487b7100000000000000000000000000000000000000000000000000000000600052602260045260246000fd5b7f4e487b7100000000000000000000000000000000000000000000000000000000600052604160045260246000fd5b6000601f19601f8301169050919050565b61120780620004f16000396000f3fe608060405234801561001057600080fd5b50600436106100415760003560e01c80637ba0975914610046578063a6c3e6b914610064578063fc446bb414610082575b600080fd5b61004e61009e565b60405161005b9190610e0a565b60405180910390f35b61006c6104b1565b6040516100799190610e2c565b60405180910390f35b61009c60048036038101906100979190610a95565b61053f565b005b606060006100ac600161087a565b905060008167ffffffffffffffff8111156100f0577f4e487b7100000000000000000000000000000000000000000000000000000000600052604160045260246000fd5b60405190808252806020026020018201604052801561012957816020015b6101166108c7565b81526020019060019003908161010e5790505b50905060005b828110156104a85760006001826101469190610fe5565b90506000600360008381526020019081526020016000209050806040518060c00160405290816000820154815260200160018201805461018590611087565b80601f01602080910402602001604051908101604052809291908181526020018280546101b190611087565b80156101fe5780601f106101d3576101008083540402835291602001916101fe565b820191906000526020600020905b8154815290600101906020018083116101e157829003601f168201915b5050505050815260200160028201805461021790611087565b80601f016020809104026020016040519081016040528092919081815260200182805461024390611087565b80156102905780601f1061026557610100808354040283529160200191610290565b820191906000526020600020905b81548152906001019060200180831161027357829003601f168201915b505050505081526020016003820180546102a990611087565b80601f01602080910402602001604051908101604052809291908181526020018280546102d590611087565b80156103225780601f106102f757610100808354040283529160200191610322565b820191906000526020600020905b81548152906001019060200180831161030557829003601f168201915b5050505050815260200160048201805461033b90611087565b80601f016020809104026020016040519081016040528092919081815260200182805461036790611087565b80156103b45780601f10610389576101008083540402835291602001916103b4565b820191906000526020600020905b81548152906001019060200180831161039757829003601f168201915b505050505081526020016005820180546103cd90611087565b80601f01602080910402602001604051908101604052809291908181526020018280546103f990611087565b80156104465780601f1061041b57610100808354040283529160200191610446565b820191906000526020600020905b81548152906001019060200180831161042957829003601f168201915b505050505081525050848481518110610488577f4e487b7100000000000000000000000000000000000000000000000000000000600052603260045260246000fd5b6020026020010181905250505080806104a0906110ea565b91505061012f565b50809250505090565b600080546104be90611087565b80601f01602080910402602001604051908101604052809291908181526020018280546104ea90611087565b80156105375780601f1061050c57610100808354040283529160200191610537565b820191906000526020600020905b81548152906001019060200180831161051a57829003601f168201915b505050505081565b6105496001610888565b6000610555600161087a565b905060006003600083815260200190815260200160002090508181600001819055508681600101908051906020019061058f9291906108fd565b50858160020190805190602001906105a89291906108fd565b50848160030190805190602001906105c19291906108fd565b50838160040190805190602001906105da9291906108fd565b50828160050190805190602001906105f39291906108fd565b50806003600084815260200190815260200160002060008201548160000155600182018160010190805461062690611087565b610631929190610983565b50600282018160020190805461064690611087565b610651929190610983565b50600382018160030190805461066690611087565b610671929190610983565b50600482018160040190805461068690611087565b610691929190610983565b5060058201816005019080546106a690611087565b6106b1929190610983565b50905050806004856040516106c69190610df3565b90815260200160405180910390206000820154816000015560018201816001019080546106f290611087565b6106fd929190610983565b50600282018160020190805461071290611087565b61071d929190610983565b50600382018160030190805461073290611087565b61073d929190610983565b50600482018160040190805461075290611087565b61075d929190610983565b50600582018160050190805461077290611087565b61077d929190610983565b509050507f5113107fc18ad6ac346f0b49534052019a17454f07ee9edabebf514eefb7dc73816000015482600101836002018460030185600401866005016040516107cd96959493929190610e85565b60405180910390a150505050505050565b61087682826040516024016107f4929190610e4e565b6040516020818303038152906040527f4b5c4277000000000000000000000000000000000000000000000000000000007bffffffffffffffffffffffffffffffffffffffffffffffffffffffff19166020820180517bffffffffffffffffffffffffffffffffffffffffffffffffffffffff838183161783525050505061089e565b5050565b600081600001549050919050565b6001816000016000828254019250508190555050565b60008151905060006a636f6e736f6c652e6c6f679050602083016000808483855afa5050505050565b6040518060c001604052806000815260200160608152602001606081526020016060815260200160608152602001606081525090565b82805461090990611087565b90600052602060002090601f01602090048101928261092b5760008555610972565b82601f1061094457805160ff1916838001178555610972565b82800160010185558215610972579182015b82811115610971578251825591602001919060010190610956565b5b50905061097f9190610a10565b5090565b82805461098f90611087565b90600052602060002090601f0160209004810192826109b157600085556109ff565b82601f106109c257805485556109ff565b828001600101855582156109ff57600052602060002091601f016020900482015b828111156109fe5782548255916001019190600101906109e3565b5b509050610a0c9190610a10565b5090565b5b80821115610a29576000816000905550600101610a11565b5090565b6000610a40610a3b84610f2e565b610f09565b905082815260208101848484011115610a5857600080fd5b610a63848285611045565b509392505050565b600082601f830112610a7c57600080fd5b8135610a8c848260208601610a2d565b91505092915050565b600080600080600060a08688031215610aad57600080fd5b600086013567ffffffffffffffff811115610ac757600080fd5b610ad388828901610a6b565b955050602086013567ffffffffffffffff811115610af057600080fd5b610afc88828901610a6b565b945050604086013567ffffffffffffffff811115610b1957600080fd5b610b2588828901610a6b565b935050606086013567ffffffffffffffff811115610b4257600080fd5b610b4e88828901610a6b565b925050608086013567ffffffffffffffff811115610b6b57600080fd5b610b7788828901610a6b565b9150509295509295909350565b6000610b908383610d30565b905092915050565b6000610ba382610f84565b610bad8185610fa7565b935083602082028501610bbf85610f5f565b8060005b85811015610bfb5784840389528151610bdc8582610b84565b9450610be783610f9a565b925060208a01995050600181019050610bc3565b50829750879550505050505092915050565b6000610c1882610f8f565b610c228185610fb8565b9350610c32818560208601611054565b610c3b816111c0565b840191505092915050565b6000610c5182610f8f565b610c5b8185610fc9565b9350610c6b818560208601611054565b610c74816111c0565b840191505092915050565b6000610c8a82610f8f565b610c948185610fda565b9350610ca4818560208601611054565b80840191505092915050565b60008154610cbd81611087565b610cc78186610fc9565b94506001821660008114610ce25760018114610cf457610d27565b60ff1983168652602086019350610d27565b610cfd85610f6f565b60005b83811015610d1f57815481890152600182019150602081019050610d00565b808801955050505b50505092915050565b600060c083016000830151610d486000860182610dd5565b5060208301518482036020860152610d608282610c0d565b91505060408301518482036040860152610d7a8282610c0d565b91505060608301518482036060860152610d948282610c0d565b91505060808301518482036080860152610dae8282610c0d565b91505060a083015184820360a0860152610dc88282610c0d565b9150508091505092915050565b610dde8161103b565b82525050565b610ded8161103b565b82525050565b6000610dff8284610c7f565b915081905092915050565b60006020820190508181036000830152610e248184610b98565b905092915050565b60006020820190508181036000830152610e468184610c46565b905092915050565b60006040820190508181036000830152610e688185610c46565b90508181036020830152610e7c8184610c46565b90509392505050565b600060c082019050610e9a6000830189610de4565b8181036020830152610eac8188610cb0565b90508181036040830152610ec08187610cb0565b90508181036060830152610ed48186610cb0565b90508181036080830152610ee88185610cb0565b905081810360a0830152610efc8184610cb0565b9050979650505050505050565b6000610f13610f24565b9050610f1f82826110b9565b919050565b6000604051905090565b600067ffffffffffffffff821115610f4957610f48611191565b5b610f52826111c0565b9050602081019050919050565b6000819050602082019050919050565b60008190508160005260206000209050919050565b600081519050919050565b600081519050919050565b6000602082019050919050565b600082825260208201905092915050565b600082825260208201905092915050565b600082825260208201905092915050565b600081905092915050565b6000610ff08261103b565b9150610ffb8361103b565b9250827fffffffffffffffffffffffffffffffffffffffffffffffffffffffffffffffff038211156110305761102f611133565b5b828201905092915050565b6000819050919050565b82818337600083830152505050565b60005b83811015611072578082015181840152602081019050611057565b83811115611081576000848401525b50505050565b6000600282049050600182168061109f57607f821691505b602082108114156110b3576110b2611162565b5b50919050565b6110c2826111c0565b810181811067ffffffffffffffff821117156110e1576110e0611191565b5b80604052505050565b60006110f58261103b565b91507fffffffffffffffffffffffffffffffffffffffffffffffffffffffffffffffff82141561112857611127611133565b5b600182019050919050565b7f4e487b7100000000000000000000000000000000000000000000000000000000600052601160045260246000fd5b7f4e487b7100000000000000000000000000000000000000000000000000000000600052602260045260246000fd5b7f4e487b7100000000000000000000000000000000000000000000000000000000600052604160045260246000fd5b6000601f19601f830116905091905056fea26469706673582212205ffd24bbe7ba0b47e77d6585ac9ac507db5ce3f26b4be83ce7e1d275a605967964736f6c63430008040033",
  "linkReferences": {},
  "deployedLinkReferences": {}
}